:400000000010002011000000910200009102000010B500F05DF9C04670B50F4C23688022D20213432360182000F0D6F922680B4B134023600A4A0B4B1A60063A0A4B1A600E
:40004000002525600949092000F092F9092000F083F9074B1D6070BD00010B40FFFFFBFF0600008004010B4008010B40E90500000C020B4010B572B60122244B1A7000246D
:400080000FE023486200131959000B00411889881A5AC31858880004104300F0F3F80134E4B2012CEDD91A490C311A482C3000F0CFF8EE221202184B1A6099231B04174A19
:4000C0001360174A1360174A13600121164B19600222164B1A60164803783A32934314221343DBB20370134A107816230343DBB21370114B1960114A114B1A60D8221201BC
:40010000104B1A60FFF788FF10BDC0461C700F4010140000901400000C00014000500F4020500F4030500F402000004000800F4001700F4000700F4008000440B66D1B0045
:40014000080204400803044010B5064C2378002B07D1054B002B02D0044800E000BF0123237010BD480100200000000000140000084B10B5002B03D00749084800E000BF9F
:4001800007480368002B00D110BD064B002BFBD09847F9E7000000004C01002000140000C00000200000000010B5012000F07CFB084B1B68084A1268084C0949200000F0B0
:4001C000F1FC0021002000F0CBFB200000F05EFB10BDC046A801002064010020980100200414000010B5104A136801331360FA229200934216D10D4A13680133136000217B
:40020000094A11603B2B0BDD0022084B1A60084A1368013313603B2B02DD0022044B1A60FFF7C2FF10BDC04694010020A80100206401002010B562B600F082FB00F074FAE4
:40024000024800F0CDFB62B6FEE7C046E5010000F0B50025002711E0BB00C658F3B2FF22964308E06A008A181478A419527822700135013BDBB2002BF4D10137052FEBD981
:40028000F0BDC04610B50A00002100F083FC10BD10B500F053FC03680C2B00D1FEE7FEE710B50300084A1068C318084A9A1A802A02DC054A136005E000F040FC0C230360BE
:4002C0000120404210BDC046C4000020B001002070B50F4E0F4D13E029686B68AC68002202E001C901C30432A242FAD1E868002202E0002102C304328242FAD11035013E90
:40030000002EE9D100F020FCFFF794FFFEE7C046010000005C15000010B500230AE0032B03D89A000949505800E009489900094A885001332F2BF2D9FFF79CFE8022D2051D
:40034000116801230B43136010BDC0460000000091020000000000201F2318401E3B8340014A13607047C04600E100E001BE704770B504000D001F2802D90020FFF7F6FFCE
:400380001034A40080239B059C4664442068256070BDC04610B5040006E0084B586800F02FFB074B9C46644480231B029C42F4D8024B9868604300F023FB10BDC800002073
:4003C0000080FFFF10B5034B1B7B584300F018FB10BDC046C8000020F0B557464E46C0B483B0040000F016FB0190E71E2D2F74D83F4B1B78DBB29C4208D83E4B1B78DBB2AC
:400400009A463D4B1B78DBB2994631E03B4B1B78DBB29C4208D83A4B1B78DBB29A46394B1B78DBB2994623E0374B1B78DBB29C4208D8364B1B78DBB29A46354B1B78DBB254
:40044000994615E0334B1B78DBB29C4208D8324B1B78DBB29A46314B1B78DBB2994607E02F4B1B78DBB29A462E4B1B78DBB299462D4BDE5D2F2E09D92A2C07D919222B4BA2
:400480001A60052000F0BCFA192503E0274B1D683F231D40B54206D9234BDA5D234B1A60052000F0ADFA1F4B9C4664442378DBB21F4A13601F4B52461A601F4B4A461A6019
:4004C0000520FFF77FFFB5420AD2174BDA5D174B1A60052000F094FA02E00020FFF746FF019800F09BFA03B00CBC91469A46F0BDC0F1FF0FC1F1FF0FC2F1FF0FC3F1FF0F3C
:40050000C4F1FF0FC5F1FF0FC6F1FF0FC7F1FF0FC8F1FF0FC9F1FF0FCAF1FF0FCBF1FF0FCCF1FF0FCDF1FF0FD41400002CFF0B4028FF0B401CFF0B4020FF0B40034B186882
:40054000C0231B02184000D00120704700010B4010B500F05FFA044A1368C02109020B43136000F05BFA10BD00010B4010B500F051FA08490A68084B1A408024E4012243EF
:400580000A600A6813408022120213430B6000F045FA10BD00010B40FF3FFFFF70B5050000F038FA0400FFF7C9FF002803D0FFF7DDFF012100E0002108482840084A15688C
:4005C000084B2B40184310601368012901D1FFF7BFFF200000F022FA70BDC0460404040010020B40FBFBFBFF10B5244B1B685B0715D5234B1B685B070ED5224BD969042083
:4006000001401F4C22688A432260DA698243DA611B69002B00D098470420FFF7BFFF174B1B685B0518D5164B1B685B0510D5154BD9698022D2001140114802688A43026008
:40064000D969114A0A40DA615B69002B00D098478020C000FFF7A2FF084B1B685B030CD5074B1B685B0304D5064B9B69002B00D098478020C002FFF791FF10BD10020B4061
:40068000DC00002068010020FFFBFFFF034A117880235B420B43DBB21370704773000F40014B18707047C04683000F40014B1878C0B2704763000F40014B18807047C04615
:4006C00044100F40014B188880B2704784100F40014B18807047C04604100F4010B501E0FFF7F0FFFFF7E2FF0307F9D410BDC04610B50B4C2000FFF7DFFF2000FFF7E8FF82
:4007000000F088F9074A117810230B43DBB2137000F084F9FFF7E2FF0020FFF7C1FF10BDBF5D000093000F4010B5064B1B78002B04D1FFF7DDFF0122024B1A70FFF7A6FFE8
:4007400010BDC0468801002010B50B4C226860239A4322602268513B9A432260226810230343D8B2104320600120FFF72BFE236810229343236010BD0002044070B505000D
:400780000E4C226820231343236023684022934323600020FFF716FE23680F2293432360226810232B43D8B2104320600120FFF709FE236810229343236070BD0002044085
:4007C000F8B5274A13687F218B43136025490B681B0B1B03244803430B60136820218B431360116840230B431360CA277F000020FFF7E8FD1A4C23681026334323600120F7
:40080000FFF7E0FD194B1D682368B34323600020FFF7D8FD08231D402368334323600120FFF7D0FD2368B3432360002D02D10A20FFF7C8FD013F002D01D0002FD7D1084BCC
:400840001A6840218A431A601A683F318A431A60044A13681B0B1B0305490B431360F8BD00020440080204404902000004020440B60D000010B50400FFF7A2FF2009FFF7D9
:400880007DFF0F202040FFF779FF10BD70B505000078012404E0FFF7EDFF285D0134E4B20028F8D170BDC04610B50400FFF788FF2009FFF749FF0F202040FFF745FF10BDAE
:4008C00010B52820FFF766FD0320FFF73DFF0520FFF760FD0320FFF737FF0F20FFF75AFD0320FFF731FF0120FFF754FD0220FFF72BFF0520FFF74EFD0620FFF7D5FF0E2083
:40090000FFF7D2FF2C20FFF7CFFF0820FFF7CCFF0120FFF7C9FF0C20FFF7C6FF0320FFF7C3FF0520FFF736FD10BDC04610B50C20FFF7BAFF0122014B1A7010BD8901002025
:4009400010B5064B5B78002B04D1FFF7B9FF0122024B5A70FFF7EAFF10BDC0468901002010B501280BD0002804D002280CD003280FD012E08039C8B2FFF796FF0DE040395F
:40098000C8B2FFF791FF08E06C39C8B2FFF78CFF03E02C39C8B2FFF787FF10BD014B18647047C0460000002010B5040000F032F8044A1368C0218B43A4011C43146000F03C
:4009C0002DF810BD00E400E00122014B1A60704700E100E00122014B1A60704780E100E010B50400FFF7F6FF2000FFF7D7FF0320FFF7DAFFFFF7E8FF10BDC04600000000BD
:400A00000230800804D0C0460138FDD1C046C046C0467047EFF3108072B6704780F310887047C046002243088B4274D303098B425FD3030A8B4244D3030B8B4228D3030CD7
:400A40008B420DD3FF22090212BA030C8B4202D31212090265D0030B8B4219D300E0090AC30B8B4201D3CB03C01A5241830B8B4201D38B03C01A5241430B8B4201D34B03F1
:400A8000C01A5241030B8B4201D30B03C01A5241C30A8B4201D3CB02C01A5241830A8B4201D38B02C01A5241430A8B4201D34B02C01A5241030A8B4201D30B02C01A5241FF
:400AC000CDD2C3098B4201D3CB01C01A524183098B4201D38B01C01A524143098B4201D34B01C01A524103098B4201D30B01C01A5241C3088B4201D3CB00C01A5241830890
:400B00008B4201D38B00C01A524143088B4201D34B00C01A5241411A00D20146524110467047FFE701B5002000F006F802BDC0460029F7D076E770477047C046014B186868
:400B40007047C046400100200E4B70B500251E000D4CE41AA410A54204D0AB00F35898470135F8E700F0E8FC084B00251E00084CE41AA410A54204D0AB00F35898470135B0
:400B8000F8E770BD4415000044150000441500004C15000003008218934202D019700133FAE770470EB410B59DB002A9029008610B48822488604861012040421FABC8816A
:400BC000084804CBA400006801938C8100F06EF80023029A13701DB010BC08BC03B01847FFFFFF7F40010020F0B58E6885B007000C00039201939E4243D890238A89DB009D
:400C00001A423ED003250969236801985B1A029363695D43EB0F5D19029B6D1001331B18AB4200D91D00530510D52900380000F041FB061E14D0029A216900F0D0FAA28965
:400C4000194B134080221343A38112E02A00380000F090FB061E0CD12169380000F0DEFA0C23402201203B60A38940421343A38117E0029B2661F61826606561019EED1AB7
:400C8000A560019BB34200D21E0032000399206800F0AEFA0020A3689B1BA36023689E19266005B0F0BDC0467FFBFFFFF0B59FB0029005938B890F0016001B0610D50B6963
:400CC000002B0DD1402100F0F5FA38603861002804D10C23029A01381360D8E040237B61002306AD6B6120336B761033AB7634002378002B03D1A31B049312D003E0252B9D
:400D0000F9D00134F4E7A31B320039000298FFF76BFF431C00D1B4E06A69049B944663446B612378002B00D1ABE00122002352426A6002A95432521801342B60EB60AB60BD
:400D40001370AB65534E21780522300000F03CFA002807D00123801B83402A68013413432B60EFE72B68DA0604D55322202102A8121811701A0704D553222B2102A8121844
:400D8000117022782A2A03D0099B00200A210EE0059A111D12680591002A01DB099204E05242EA60022213432B6001340BE02278303A092A04D84B4301349B180120F6E728
:400DC000002800D0099323782E2B1ED163782A2B0AD1059B02341A1D1B680592002B01DA01235B42079310E000230A201A0001346B6021783039092904D84243013452185E
:400E00000123F6E7002B00D00792234E21780322300000F0D9F9002806D04023801B83402A68013413432B60217806221B48661C297600F0C9F9002812D0194B002B06D12E
:400E40000722059B073393430833059314E005AB00933A00134B2900029800E000BF07E005AB00933A000F4B2900029800F08AF80390039B013304D06B69039A9B186B6179
:400E800035E7BB890B985B0601D5012040421FB0F0BDC046041500000A1500000E15000000000000E90B0000F7B5170001938A680B6900900C00934200DA130022003B60AC
:400EC00043321278002A01D001333B6023689B0602D53B6802333B60062523681D401ED0230043331B785A1E9341226892061CD53020E1184331087021005A1C4531097864
:400F0000A2184332023311700FE022000123193201990098089EB047431C0ED00135E3683A689B1A9D42F0DBDAE72200019943320098089DA847431C02D10120404220E0CB
:400F400006232068E1683A6803400025042B03D18D1AEB43DB171D40A3682269934201DD9B1AED180027BD420AD0220001231A3201990098089EB047431CDED00137F2E7C4
:400F80000020FEBDF0B58BB006920A0043320793059004920A7E0C00109B6E2A00D1ABE011D8632A22D009D8002A00D1B5E0582A00D0C5E045310A70814A4FE0642A1DD032
:400FC000692A1BD0BCE0732A00D1AAE009D86F2A29D0702A00D0B3E0202209680A43226037E0752A1FD0782A33D0A9E00E001A684236111D196013683370A4E021681A68BE
:40100000080606D4490604D5111D19600023D55E02E0111D19601568002D3BDA2D23049A6D42137036E021681A68080606D4490604D51568111D1960ADB202E0111D1960FE
:4010400015685F4B227E039308276F2A1DD00A271BE022007821453211705A4A19680392081D226818600D68100602D4500600D5ADB2D30702D520231A4322601027002D7C
:4010800003D1202322689A4322602300002243331A7002E00A274A4B03936368A360002B09DB0422216891432160002D05D1049E002B11D07BE0002D79D0049E2800390047
:4010C000FFF736FD039B013E5B5C280033703900FFF7A8FC051EF1D1082F09D12368DB0706D563682269934202DC3023013E3370049B9B1B23612BE009681A68080607D459
:40110000490605D5111D19601368A28A1A8004E0111D1960136862691A600023049E236116E01A68111D1960166800216268300000F04AF8002801D0801B6060636803E01E
:40114000260042363270012323610023049A1370079B09AA00932100069B0598FFF7A4FE431C02D10120404227E02369320006990598079DA847431CF4D0236800259B0786
:401180000FD4099BE068984217DA180015E022000123193206990598079EB047431CE1D00135E368099A9B1A9D42F0DBE9E72600039B42361B7833708EE70BB0F0BDC04667
:4011C0001515000026150000C9B28218904204D003788B4202D00130F8E700207047002310B59A4203D0CC5CC4540133F9E710BD10B5884202D98B18984201D3002305E053
:401200009B1A013A08D3995C8154FAE7934203D0CC5CC4540133F9E710BD000070B50500002944D00C1F2368002B00DAE418280000F0D8F81E4A13681100002B02D16360B4
:40124000146031E0A3420DD92268A018834203D118685B688218226063600C6024E0A24203D813005A68002AF9D11E689819A0420BD12168711858181960824214D1106818
:401280005268411819605A600EE0A04202D90C232B6009E021686018824203D1106852684118216062605C60280000F09CF870BD90010020032370B5CD1C9D430835060096
:4012C0000C2D01D20C2501E0002D01DBA94202D90C23336048E0300000F084F8234B1C681A002100002913D00B685B1B0DD40B2B02D90B60CC181EE08C4202D1636813603B
:401300001AE04B6863600C0016E00C004968E9E7174C2368002B03D1300000F051F820602900300000F04CF8431C18D00323C41C9C43A0420DD12560300000F054F820004E
:4013400007220B30231D9043C31A0ED05A42E2500BE0211A300000F033F8431CEBD10C233000336000F03FF8002070BD900100208C010020F8B506000C001500002904D14B
:401380001100FFF797FF040018E0002A03D1FFF745FF2C0012E000F027F885420ED929003000FFF787FF071E07D021002A00FFF716FF21003000FFF731FF3C002000F8BDD2
:4013C000002370B5064C050008002360FEF768FF431C03D12368002B00D02B6070BDC046AC010020704770470B1F1A68101F002A04DA891804390B68D018043870470000A6
:4014000000000000253032753A2530327500000000300F40000400400F400004830D404549FF4AFF4BFF4F0150185A045D095F016040624064406540668068806A806C8069
:401440006E808E019201B601BE40C054C5ECC720C823C9FFCAFFCBFFCD83CE03CF01D018D280D401D604D804DA04DB04DD99DF01E040E240E440E540E680E880EA80EC80BD
:40148000EE8002020B4019404101468049054B404E025101520259456380728073408340C001C208D081D218D60BD8016F10DA8083109F10E22002011101000001000F4054
:4014C00032320F4015330F4002400F4003410F4002600F40030405060708090A0B0C0E0F101112131415161718191B1C1D1E1F2021222325262728292A2B2E2F3031323346
:4015000034354300232D302B2000686C4C00656667454647003031323334353637383941424344454600303132333435363738396162636465660000F8B5C046F8BC08BCE1
:401540009E4670477101000019030000F8B5C046F8BC08BC9E4670474901000070150000C000002088000000680000000000000000000000B0010020010000000000E02EFD
:40158000C05D00001800000000366E01040404000000000000000000000000000000000000000000000000000000000000000000021500000000000000000000000000002E
:4015C000000000000000000000000000000000000000000000000000000000000000000000000000000000000000000000000000E0000020000000000000000000000000EB
:4016000000000000000000000000000000000000000000000000000000000000000000000000000000000000000000000000000000000000000000000000000000000000AA
:40164000000000000000000000000000000000000000000000000000000000000000000000000000000000000000000000000000000000000000000000000000000000006A
:40168000000000000000000000000000000000000000000000000000000000000000000000000000000000000000000000000000000000000000000000000000000000002A
:4016C00000000000000000000000000000000000000000000000000000000000000000000000000000000000000000000000000000000000000000000000000000000000EA
:0200000490303A
:02000000688D09
:0200000490402A
:200000000000000000000000000000000000000000000000000000000000000000000000E0
:0200000490501A
:0C000000000204C81193110104CF7A2003
:0200000490600A
:0100000001FE
:00000001FF