:4000000000100020110000003D0200003D02000010B500F01BF9C04670B50F4C23688022D20213432360182000F0BEFA22680B4B134023600A4A0B4B1A60063A0A4B1A600F
:40004000002525600949092000F07AFA092000F06BFA074B1D6070BD00010B40FFFFFBFF0600008004010B4008010B40B90700000C020B4010B572B600240FE01548620037
:40008000131959000B00411889881A5AC31858880004104300F0CCF80134E4B2012CEDD9EE2212020C4B1A6099231B040B4A13600B4A13600B4A117806230B43DBB2137089
:4000C000094A0A4B1A60D8221201094B1A60FFF7A3FF10BD6C0900000C00014020500F4030500F4000700F40B66D1B000802044008030440000000000000000000000000B4
:4001000010B5064C2378002B07D1054B002B02D0044800E000BF0123237010BD580100200000000064090000084B10B5002B03D00749084800E000BF07480368002B00D15D
:4001400010BD064B002BFBD09847F9E7000000005C01002064090000C000002000000000F8B505000F0000F0F5FBC6B2102E36D9012000F05FF9280000F04EF932E0012081
:4001800000F058F9012F07D10021002000F0AEF9281900F041F907E0311BC9B2002000F0A5F9280000F038F9012F04D10134E4B2A64205D307E0002C04D0013CE4B202E0E2
:4001C000002400E034000021012000F08FF9064800F022F9FA20400000F0C4F900E00024B442CCD9F8BDC046C400002070B562B60D49022000F092FB00F068F900210020AB
:4002000000F074F9094D2C000C34200000F004F90021012000F06AF9280000F0FDF801212000FFF79DFFE9E768090000C400002010B50A00002100F07BFB10BD10B500F01F
:4002400021FB03680C2B00D1FEE7FEE770B50F4E0F4D13E029686B68AC68002202E001C901C30432A242FAD1E868002202E0002102C304328242FAD11035013E002EE9D1FA
:4002800000F006FBFFF7B2FFFEE7C04601000000D409000010B500230AE0032B03D89A000949505800E009489900094A885001332F2BF2D9FFF7DEFE8022D2051168012338
:4002C0000B43136010BDC046000000003D0200000000002010B50B4C226860239A4322602268513B9A432260226810230343D8B210432060012000F04DF9236810229343C4
:40030000236010BD0002044070B505000E4C22682023134323602368402293432360002000F038F923680F2293432360226810232B43D8B210432060012000F02BF9236819
:4003400010229343236070BD00020440F8B5274A13687F218B43136025490B681B0B1B03244803430B60136820218B431360116840230B431360CA277F00002000F00AF9A6
:400380001A4C2368102633432360012000F002F9194B1D682368B3432360002000F0FAF808231D40236833432360012000F0F2F82368B3432360002D02D10A2000F0EAF81B
:4003C000013F002D01D0002FD7D1084B1A6840218A431A601A683F318A431A60044A13681B0B1B0305490B431360F8BD00020440080204404902000004020440B60D000075
:4004000010B50400FFF7A2FF2009FFF77DFF0F202040FFF779FF10BD70B505000078012404E0FFF7EDFF285D0134E4B20028F8D170BDC04610B50400FFF788FF2009FFF791
:4004400049FF0F202040FFF745FF10BD10B5282000F088F80320FFF73DFF052000F082F80320FFF737FF0F2000F07CF80320FFF731FF012000F076F80220FFF72BFF05202C
:4004800000F070F80620FFF7D5FF0E20FFF7D2FF2C20FFF7CFFF0820FFF7CCFF0120FFF7C9FF0C20FFF7C6FF0320FFF7C3FF052000F058F810BDC04610B50C20FFF7BAFF8D
:4004C0000122014B1A7010BD7401002010B5064B5B78002B04D1FFF7B9FF0122024B5A70FFF7EAFF10BDC0467401002010B501280BD0002804D002280CD003280FD012E0C2
:400500008039C8B2FFF796FF0DE04039C8B2FFF791FF08E06C39C8B2FFF78CFF03E02C39C8B2FFF787FF10BD1F2318401E3B8340014A13607047C04600E100E001BE70479C
:4005400070B504000D001F2802D90020FFF7F6FF1034A40080239B059C4664442068256070BDC04610B5040006E0084B586800F077F9074B9C46644480231B029C42F4D8BB
:40058000024B9868604300F06BF910BDDC0000200080FFFF10B5034B1B7B584300F060F910BDC046DC000020F0B557464E46C0B483B0040000F05EF90190E71E2D2F74D84E
:4005C0003F4B1B78DBB29C4208D83E4B1B78DBB29A463D4B1B78DBB2994631E03B4B1B78DBB29C4208D83A4B1B78DBB29A46394B1B78DBB2994623E0374B1B78DBB29C4283
:4006000008D8364B1B78DBB29A46354B1B78DBB2994615E0334B1B78DBB29C4208D8324B1B78DBB29A46314B1B78DBB2994607E02F4B1B78DBB29A462E4B1B78DBB29946B8
:400640002D4BDE5D2F2E09D92A2C07D919222B4B1A60052000F004F9192503E0274B1D683F231D40B54206D9234BDA5D234B1A60052000F0F5F81F4B9C4664442378DBB2BD
:400680001F4A13601F4B52461A601F4B4A461A600520FFF77FFFB5420AD2174BDA5D174B1A60052000F0DCF802E00020FFF746FF019800F0E3F803B00CBC91469A46F0BD24
:4006C000C0F1FF0FC1F1FF0FC2F1FF0FC3F1FF0FC4F1FF0FC5F1FF0FC6F1FF0FC7F1FF0FC8F1FF0FC9F1FF0FCAF1FF0FCBF1FF0FCCF1FF0FCDF1FF0F780900002CFF0B4036
:4007000028FF0B401CFF0B4020FF0B40034B1868C0231B02184000D00120704700010B4010B500F0A7F8044A1368C02109020B43136000F0A3F810BD00010B4010B500F03A
:4007400099F808490A68084B1A408024E40122430A600A6813408022120213430B6000F08DF810BD00010B40FF3FFFFF70B5050000F080F80400FFF7C9FF002803D0FFF7D5
:40078000DDFF012100E0002108482840084A1568084B2B40184310601368012901D1FFF7BFFF200000F06AF870BDC0460404040010020B40FBFBFBFF10B5244B1B685B07E8
:4007C00015D5234B1B685B070ED5224BD969042001401F4C22688A432260DA698243DA611B69002B00D098470420FFF7BFFF174B1B685B0518D5164B1B685B0510D5154B4D
:40080000D9698022D2001140114802688A430260D969114A0A40DA615B69002B00D098478020C000FFF7A2FF084B1B685B030CD5074B1B685B0304D5064B9B69002B00D097
:4008400098478020C002FFF791FF10BD10020B40F000002078010020FFFBFFFF000000000230800804D0C0460138FDD1C046C046C0467047EFF3108072B6704780F3108826
:400880007047C046014B18687047C046540100200E4B70B500251E000D4CE41AA410A54204D0AB00F35898470135F8E700F080F8084B00251E00084CE41AA410A54204D04D
:4008C000AB00F35898470135F8E770BDBC090000BC090000BC090000C409000070B5141E0B4D12D00B49100000F02AF800280CD02900200000F024F8002806D006492000F8
:4009000000F01EF80023984200D12B00180070BDA6090000A8090000AF09000010B5034B0A0001001868FFF7D9FF10BD5401002003008218934202D019700133FAE7704714
:4009400002780B78002A03D0013001319A42F7D0D01A70470023C25C0133002AFBD1581E7047000000000000756B720000300F40000400400F400004030405060708090AA2
:400980000B0C0E0F101112131415161718191B1C1D1E1F2021222325262728292A2B2E2F3031323334354300504F534958002E00F8B5C046F8BC08BC9E4670472901000087
:4009C00095020000F8B5C046F8BC08BC9E46704701010000E8090000C00000209800000040000000000000000000000050657472617368656B000000566F6C6F64696D6905
:400A000072000000010000000000E02EC05D00001800000000366E01040404000000000000000000000000000000000000000000000000000000000000000000A6090000A0
:400A4000000000000000000000000000000000000000000000000000000000000000000000000000000000000000000000000000000000000000000000000000F400002062
:400A80000000000000000000000000000000000000000000000000000000000000000000000000000000000000000000000000000000000000000000000000000000000036
:400AC00000000000000000000000000000000000000000000000000000000000000000000000000000000000000000000000000000000000000000000000000000000000F6
:400B000000000000000000000000000000000000000000000000000000000000000000000000000000000000000000000000000000000000000000000000000000000000B5
:400B40000000000000000000000000000000000000000000000000000000000000000000000000000000000000000000000000000000000000000000000000000000000075
:0200000490303A
:020000008F99D6
:0200000490402A
:200000000000000000000000000000000000000000000000000000000000000000000000E0
:0200000490501A
:0C000000000204C81193110104CBA12CD4
:0200000490600A
:0100000001FE
:00000001FF